:020000020000FC
:040000000C94460016
:0C0014000C946D010C9460010C948401AC
:040078000C94D10013
:10008C0000E10EBF0FEF0DBF00E0002E01E0102EBF
:10009C0004D10FEF702F7894701509F0FDCFF89400
:1000AC000FEF0ABB04BB0FE00093640000936500E4
:1000BC000FEF05BB702F05E00BBB07B3006C07BB44
:1000CC000AE20FBD0BE10EBD00E00DBD0CBD05E05D
:1000DC0007BD0CED06BD00E009BD0AE008BD00E05F
:1000EC00009379000AE0009378000027B1E0A1E5C5
:1000FC000D930D930D930D930D930D930D930D93F4
:10010C000D930D930D930D930D930D930D930D93E3
:10011C000D930D930D930D930D930D930D930D93D3
:10012C000D930D930D930D930D930D930D930D93C3
:10013C0019D025D0D9D04AD17894701509F0FDCFBB
:10014C0056D080ED68D08BE666D080E464D05CD06D
:10015C0000270BBB09BD08BD009379000093780004
:10016C0014D0FFCF00E00093980007E600939900AD
:10017C0008E100939A0006E000939D000895009119
:10018C009A00006800939A00089500919A000F77E6
:10019C0000939A000895F894BFB68F930F938091B3
:1001AC009C00D1E0C0E788830FE0813311F408E0B4
:1001BC000CC0823311F404E008C0833311F402E064
:1001CC0004C0843311F401E000C0009365000FEF0C
:1001DC0005BB0F918F91BFBE7894189503E002BBBD
:1001EC000CE00093700000E000937100089504EAA5
:1001FC000093740023D0089500E002BB00E000934C
:10020C00700000937100089504E90093740008ECE9
:10021C000A95F1F708958093730004E80093740035
:10022C000DD008950F9304E8903009F004EC00937E
:10023C00740004D0809173000F910895AA242AEFC2
:10024C000091740007FF01C008952A95C9F7DCDFFF
:10025C00B1E0AFE60C9103950C93A394089507E0DD
:10026C0005BD00E004BD00E407BF0895F894BFB6D7
:10027C000F93D1E0CFE6088103950A3010F000E02F
:10028C000BBB08830F91BFBE7894189505E005BD94
:10029C0000E004BD00E407BF0895F89400E000936B
:1002AC006A0002E00ABF00E109BF7894089500E0FB
:1002BC0009BF0895F894BFB68F939F93772790E06A
:1002CC008AE070D09F918F91BFBE78941895F89466
:1002DC00BFB68F939F93772790E08AE063D09F916E
:1002EC008F91BFBE78941895F89400E000936A0043
:1002FC0008E30ABF00E609BF789408957894BFB666
:10030C00FF93EF93DF93CF93BF93AF939F938F9311
:10031C007F936F935F934F933F932F931F930F9301
:10032C00FF92EF92DF92CF92BF92AF929F928F92F9
:10033C007F926F925F924F923F922F921F920F92E9
:10034C006ED0B1E0AFE60C91043648F000270BBB41
:10035C0009BD08BD009379000093780001C083D1DA
:10036C000F901F902F903F904F905F906F907F90C9
:10037C008F909F90AF90BF90CF90DF90EF90FF90B9
:10038C000F911F912F913F914F915F916F917F91A1
:10039C008F919F91AF91BF91CF91DF91EF91FF9191
:1003AC00BFBE18950E94DD010197E1F70895DF9318
:1003BC00CF93CBE9DFE02197F1F7DF91CF9108954F
:1003CC008F9388EC8A95F1F78F91089510DF80ED6B
:1003DC0022DF8BE620DF80E01EDF16DF08DF80EDFA
:1003EC001ADF89E118DF8CE716DF0EDF00DF80ED06
:1003FC0012DF8BE110DF88E10EDF06DFF8DE80ED27
:10040C000ADF8CE108DF88E106DFFEDEF0DE80ED3E
:10041C0002DF88E300DF81E0FEDEF6DE0895AA2429
:10042C00E6DE80EDF8DE8BE3F6DEE1DE81EDF3DE79
:10043C00AA2069F44EE0E1E5F1E04A95942FF2DE52
:10044C0081934423D1F7E0DEAA2009F402C0AA2448
:10045C000895B1E0A1E50D91502E0D91402EA4D040
:10046C00D1E0CBE6F990E99055944794F594E79454
:10047C004E0C5F1CD1E0CBE659924992952C842C02
:10048C000D91502E0D91402EC6D0D1E0CDE6F990B5
:10049C00E99055944794F594E7944E0C5F1CD1E089
:1004AC00CDE659924992752C642C0D91502E0D91DC
:1004BC00402E57FC01C004C050944094410C501C79
:1004CC00569447940D91502E0D91402E0D91502E17
:1004DC000D91402E5594479455944794352D242DC9
:1004EC00D1E0C1E659904880240D351D0D91502E58
:1004FC000D91402E5594479455944794552D442D69
:10050C00D1E0CFE559904880440D551D0D91502EEA
:10051C000D91402E57FC01C004C050944094410CE6
:10052C00501C95948794959487949594879495945E
:10053C00879475946794759467947594679475947F
:10054C0067945524442455954795552E442E55941F
:10055C004794440D551D55944794440D551D559481
:10056C004794440D551D5524442435952795532EF9
:10057C00422E55944794240D351D55944794240DC3
:10058C00351D55944794240D351D44245524260DB2
:10059C00371D480D591DD1E0C1E639932993D1E09F
:1005AC00CFE559934993089555944794559447949E
:1005BC0003E2401A50081127D1E0C0E7188111332B
:1005CC0021F40CE0401A500805C0123319F40CE069
:1005DC00400E501C112757FC01C005C0509440948C
:1005EC00410C501C109504E1401602E0500638F402
:1005FC00F7E0ECE9440C551CE40DF51D02C0FBE0E2
:10060C00E6EC55904490112321F050944094410C09
:10061C00501C1127089555944794559447940AE01B
:10062C00401A5008112757FC01C005C05094409443
:10063C00410C501C109504E1401602E0500638F4B1
:10064C00F7E0ECE9440C551CE40DF51D02C0FBE091
:10065C00E6EC55904490112321F050944094410CB9
:10066C00501C11270895FF92EF92D1E0CFE5F9903D
:10067C00E990D1E0C3E6599049900AE0202F00E0C0
:10068C00302FE216F3064CF406EF202F0FEF302F2D
:10069C00E216F30614F0EE24FF244E0C5F1CD1E09E
:1006AC00C3E659924992D1E0CFE5F990E990F594DF
:1006BC00E79455944794559447945594479455947E
:1006CC004794E40CF51CD1E0CFE539912991D1E0A8
:1006DC00C5E659914991241B350BE20EF31ED1E06E
:1006EC00CFE539912991D1E0C5E63993299344247A
:1006FC00552422273327D1E0C0E71881133341F466
:10070C000AEA402E00E0502E0AE1202F0FEF302F86
:10071C00143341F40CE4402E0FEF502E02ED202F39
:10072C0000E0302F4E0C5F1C2E0D3F1D11270027B3
:10073C0057FC02C0016005C0026050944094410C0B
:10074C00501C37FD02C0046005C008603095209530
:10075C00210D301D0BBB59BC48BC30937900209344
:10076C007800EF90FF9008953F065B4F666D7D27F4
:10077C007F6F777C585E7971400011111111110057
:10078C0001001004000807100107020811111111D3
:10079C000000001B00370052006E008900A500C14C
:1007AC0000DC00F80113012F014A01660182019D52
:1007BC0001B901D401F0020B02270243025E027A56
:1007CC00029502B102CD02E80304031F033B035759
:1007DC000372038E03AA03C503E103FC041804345B
:1007EC00044F046B048704A204BE04DA04F505115B
:1007FC00052D054805640580059B05B705D305EF58
:10080C00060A06260642065E0679069506B106CD50
:10081C0006E807040720073C07570773078F07AB49
:10082C0007C707E307FE081A08360852086E088A3D
:10083C0008A608C108DD08F909150931094D09692F
:10084C00098509A109BD09D909F50A110A2D0A4919
:10085C000A650A810A9D0AB90AD50AF10B0D0B2902
:10086C000B450B620B7E0B9A0BB60BD20BEE0C0BE3
:10087C000C270C430C5F0C7B0C980CB40CD00CECC0
:10088C000D090D250D410D5E0D7A0D960DB30DCF95
:10089C000DEC0E080E240E410E5D0E7A0E960EB364
:1008AC000ECF0EEC0F080F250F410F5E0F7B0F972D
:1008BC000FB40FD10FED100A102710431060107DEC
:1008CC00109910B610D310F0110D112A11461163A6
:1008DC001180119D11BA11D711F41211122E124B55
:1008EC001268128512A212BF12DC12FA13171334FB
:1008FC001351136E138C13A913C613E41401141E95
:10090C00143C14591476149414B114CF14EC150A25
:10091C001527154515631580159E15BB15D915F7AB
:10092C00161516321650166E168C16AA16C816E523
:10093C0017031721173F175D177B179A17B817D690
:10094C0017F418121830184F186D188B18A918C8EE
:10095C0018E61905192319411960197F199D19BC3D
:10096C0019DA19F91A181A361A551A741A931AB27E
:10097C001AD01AEF1B0E1B2D1B4C1B6B1B8A1BA9B1
:10098C001BC91BE81C071C261C461C651C841CA4CC
:10099C001CC31CE31D021D221D411D611D801DA0D9
:1009AC001DC01DE01E001E1F1E3F1E5F1E7F1E9FD2
:1009BC001EBF1EDF1EFF1F201F401F601F801FA1B8
:1009CC001FC11FE22002202320432064208520A584
:1009DC0020C620E721082129214A216B218C21AD39
:1009EC0021CE21EF2210223222532275229622B8D8
:1009FC0022D922FB231C233E2360238223A423C65B
:100A0C0023E8240A242C244E2470249324B524D7C0
:100A1C0024FA251C253F2562258425A725CA25ED0A
:100A2C002610263326562679269C26C026E3270731
:100A3C00272A274E2771279527B927DD2801282536
:100A4C002849286D289128B628DA28FF2923294817
:100A5C00296D299129B629DB2A002A252A4B2A70CF
:100A6C002A952ABB2AE02B062B2C2B522B782B9E5B
:100A7C002BC42BEA2C102C372C5D2C842CAB2CD2B9
:100A8C002CF82D1F2D472D6E2D952DBD2DE42E0CE4
:100A9C002E342E5C2E842EAC2ED42EFC2F252F4DD6
:100AAC002F762F9F2FC82FF1301A3044306D30978E
:100ABC0030C030EA3114313E3169319331BE31E905
:100ACC003213313E326A3295327532EC331833447C
:100ADC003370339C33C933F63422344F347D34AA0B
:100AEC0034D8350535333561359035BE35ED361C8A
:100AFC00364B367A36AA36DA370A373A376A379BA4
:100B0C0037CC37FD382F3860389238C438F739294C
:100B1C00395C399039C339F73A2B3A603A943AC96F
:100B2C003AFF3B343B6B3BA13BD83C0F3C463C7EF5
:100B3C003CB63CEF3D283D613D9B3DD53E0F3E4BC9
:100B4C003E863EC23EFF3F3C3F793FB73FF64035C5
:100B5C00407440B540F54137417941BC41FF4243B7
:100B6C00428842CE4314435B43A343EC4436448156
:100B7C0044CD4519456745B64606465846AA46FE35
:100B8C00475447AA4803485D48B94917497749D99A
:100B9C004A3D4AA44B0D4B794BE94C5C4CD34D4E22
:100BAC004DCE4E544EDF4F72500D50B15163522307
:0C0BBC0052F853E95507567C5A005A00C5
:00000001FF
